:100000000C9434000C9451000C9451000C94970102
:100010000C9451000C9451000C9451000C9451001C
:100020000C9451000C9451000C9451000C9451000C
:100030000C9451000C9451000C9451000C945100FC
:100040000C9451000C9451000C9451000C945100EC
:100050000C9451000C9419010C9451000C94510013
:100060000C9451000C94510011241FBECFEFD8E026
:10007000DEBFCDBF12E0A0E0B1E0E2ECFCE002C0E8
:1000800005900D92AA34B107D9F722E0AAE4B2E0B4
:1000900001C01D92AE35B207E1F70E94CF010C946A
:1000A0005F060C940000CF93C82F8A3019F48DE0BE
:1000B0000E9453008091C00085FFFCCFC093C60012
:1000C00080E090E0CF910895CF93DF9380910E016F
:1000D000882329F0C0915202D091530202C0CEE58C
:1000E000D1E0DF93CF938FE091E09F938F930E94B5
:1000F0008103EAE4F2E082819381958384838081A5
:10010000918193838283D183C083448155812281ED
:100110003381808191815F934F933F932F939F937E
:100120008F9385E391E09F938F930E9481031092B8
:100130005502109254028DB79EB70C960FB6F894E4
:100140009EBF0FBE8DBF80E012C0E82FEE0FFF0BE9
:10015000E65BFD4F40815181209154023091550260
:10016000240F351F30935502209354028F5F833044
:1001700064F3809154029091550263E070E00E9414
:1001800059037093550260935402809154029091E8
:1001900055029F938F938BE491E09F938F930E94DE
:1001A00081030F900F900F900F90CE01DF91CF91B0
:1001B00008950E946400089580910E01882329F01B
:1001C000809152029091530202C08EE591E09F937C
:1001D0008F9389E791E09F938F930E9481030F9003
:1001E0000F900F900F9008951092C50087E48093B0
:1001F000C400E2ECF0E0808186608083E1ECF0E016
:10020000808188618083089586E991E09F938F9330
:100210000E948103ECE7F0E080818064808380E6C7
:1002200080838BE880937A0010927B000F900F9070
:1002300008951F920F920FB60F9211248F939F93E0
:10024000EF93FF9380917C008136A9F48091780030
:10025000909179000024880F991F001C880F991F26
:10026000001C892F902D909357028093560280E6B0
:1002700080937C0018C080917C008036A1F480912E
:100280007800909179000024880F991F001C880F36
:10029000991F001C892F902D909353028093520236
:1002A00081E680937C00EAE7F0E0808180648083CF
:1002B000FF91EF919F918F910F900FBE0F901F9024
:1002C00018958AB180648AB983E884BD81E085BDD0
:1002D0000895CF93C82F1F928F9385EF91E09F933E
:1002E0008F930E948103C7BD0F900F900F900F90C6
:1002F000CF910895E0E8F0E0808183648083E1E8B5
:10030000F0E080818F61808384E690E090938900A3
:100310008093880084B18D7F84B985B1826085B96E
:1003200081E08093680082E080936B0008951F92C3
:100330000F920FB60F9211242F933F934F935F9319
:100340006F937F938F939F93AF93BF93EF93FF939D
:1003500080E192E09F938F930E9481030F900F9012
:100360004C990CC088B1806188B9809150029091FD
:10037000510201969093510280935002FF91EF91A8
:10038000BF91AF919F918F917F916F915F914F91AD
:100390003F912F910F900FBE0F901F9018950E94C4
:1003A000F40080E091E090935B0280935A021F92E8
:1003B00087E48F9380EC8F931F928FE192E09F935D
:1003C0008F930E94810380910E010F900F900F90E8
:1003D0000F900F900F90882319F00E94040102C023
:1003E0000E947A010E9461017894EAE7F0E080813E
:1003F000806480830E94D9000E94DC0060915202D8
:100400007091530280E090E00E945E0220E030E0B4
:1004100040E85AE30E94C40220E030E04FE753E492
:100420000E94C4020E942F02862F0E9469018091BF
:100430000E01882351F02FEF8FEB91E22150804085
:100440009040E1F700C00000D5CF2FEF8FEB91E295
:10045000215080409040E1F700C00000CBCF0E94C7
:10046000A30288F09F5798F0B92F9927B751B0F0A1
:10047000E1F0660F771F881F991F1AF0BA95C9F728
:1004800014C0B13091F00E94BD02B1E008950C9407
:10049000BD02672F782F8827B85F39F0B93FCCF3BA
:1004A000869577956795B395D9F73EF490958095A5
:1004B000709561957F4F8F4F9F4F0895E89409C0C5
:1004C00097FB3EF490958095709561957F4F8F4F87
:1004D0009F4F9923A9F0F92F96E9BB279395F6959D
:1004E000879577956795B795F111F8CFFAF4BB0F1B
:1004F00011F460FF1BC06F5F7F4F8F4F9F4F16C07F
:10050000882311F096E911C0772321F09EE8872F08
:10051000762F05C0662371F096E8862F70E060E0C4
:100520002AF09A95660F771F881FDAF7880F96953D
:10053000879597F9089557FD9058440F551F59F026
:100540005F3F71F04795880F97FB991F61F09F3FC0
:1005500079F087950895121613061406551FF2CFE9
:100560004695F1DF08C0161617061806991FF1CF39
:1005700086957105610508940895E894BB27662760
:100580007727CB0197F908950E94D7020C9448036E
:100590000E943A0338F00E94410320F0952311F0A5
:1005A0000C9431030C94370311240C94BE020E9466
:1005B0009B0270F3959FC1F3950F50E0551F629F0A
:1005C000F001729FBB27F00DB11D639FAA27F00DAC
:1005D000B11DAA1F649F6627B00DA11D661F829FD3
:1005E0002227B00DA11D621F739FB00DA11D621FB8
:1005F000839FA00D611D221F749F3327A00D611DD5
:10060000231F849F600D211D822F762F6A2F1124B6
:100610009F5750409AF0F1F088234AF0EE0FFF1FE9
:10062000BB1F661F771F881F91505040A9F79E3F40
:10063000510580F00C9431030C94BE025F3FE4F34B
:10064000983ED4F3869577956795B795F795E79596
:100650009F5FC1F7FE2B880F911D9695879597F99F
:10066000089597F99F6780E870E060E008959FEF34
:1006700080EC089500240A94161617061806090639
:10068000089500240A941216130614060506089508
:10069000092E0394000C11F4882352F0BB0F40F490
:1006A000BF2B11F460FF04C06F5F7F4F8F4F9F4FD0
:1006B000089597FB072E16F4009407D077FD09D014
:1006C0000E946D0307FC05D03EF4909581959F4FE5
:1006D0000895709561957F4F0895AA1BBB1B51E14A
:1006E00007C0AA1FBB1FA617B70710F0A61BB70BA2
:1006F000881F991F5A95A9F780959095BC01CD0147
:100700000895A0E0B0E0E7E8F3E00C943806AE010D
:100710004B5F5F4FFA0161917191AF0180915A0275
:1007200090915B020E949703E2E00C945406ABE0C8
:10073000B0E0EDE9F3E00C9428066C017B018A013E
:10074000FC0117821682838181FFCCC1CE01019604
:100750003C01F6019381F70193FD859193FF81910F
:100760007F01882309F4BAC1853239F493FD85915C
:1007700093FF81917F01853229F4B60190E00E94B8
:100780008E05E7CF912C212C312CFFE1F315D8F009
:100790008B3279F038F4803279F08332A1F4232D52
:1007A00020611DC08D3261F0803369F4232D2160FA
:1007B00016C0832D8260382EE32DE4603E2E2AC0C1
:1007C000F32DF8601DC037FC2DC020ED280F2A3016
:1007D00040F08E32B9F436FC81C1232D2064322ED4
:1007E00019C036FE06C08AE0989E200D1124922E74
:1007F00011C0EAE02E9E200D1124222EF32DF0626E
:100800003F2E08C08C3621F4832D8068382E02C01C
:10081000883641F4F70193FD859193FF81917F0123
:100820008111B3CF982F9F7D9554933028F40C5F9E
:100830001F4F9FE399830DC0833631F0833771F0EA
:10084000833509F059C021C0F801808189830E5F8A
:100850001F4F88248394912C530113C02801F2E088
:100860004F0E511CF801A080B18036FE03C0692DE7
:1008700070E002C06FEF7FEFC5010E9483054C015D
:100880008201F32DFF773F2E16C0280122E0420E91
:10089000511CF801A080B18036FE03C0692D70E0C4
:1008A00002C06FEF7FEFC5010E9478054C01F32D68
:1008B000F0683F2E820133FC1BC0822D90E0881629
:1008C0009906B0F4B60180E290E00E948E052A9469
:1008D000F4CFF50137FC859137FE81915F01B601B8
:1008E00090E00E948E0521102A9421E0821A91083E
:1008F0008114910471F7E8C0843611F0893641F50E
:10090000F80137FE07C060817181828193810C5F9D
:100910001F4F08C060817181072E000C880B990B56
:100920000E5F1F4FF32DFF763F2E97FF09C0909566
:100930008095709561957F4F8F4F9F4FF0683F2E48
:100940002AE030E0A3010E94CA05882E861845C01F
:10095000853731F4232D2F7EB22E2AE030E025C0DA
:10096000932D997FB92E8F36C1F018F4883579F020
:10097000B5C0803719F0883721F0B0C0E92FE061A9
:10098000BE2EB4FE0DC0FB2DF460BF2E09C034FE98
:100990000AC0292F2660B22E06C028E030E005C02C
:1009A00020E130E002C020E132E0F801B7FE07C0EC
:1009B00060817181828193810C5F1F4F06C06081CD
:1009C000718180E090E00E5F1F4FA3010E94CA0575
:1009D000882E8618FB2DFF773F2E36FE0DC0232D67
:1009E0002E7FA22E891458F434FE0BC032FC09C0AD
:1009F000832D8E7EA82E05C0B82CA32C03C0B82C46
:100A000001C0B92CA4FE0FC0FE01E80DF11D8081CC
:100A1000803321F49A2D997EA92E09C0A2FE06C02A
:100A2000B394B39404C08A2D867809F0B394A3FCE0
:100A300011C0A0FE06C0B21488F4280C922C9B189A
:100A40000EC0B21460F4B60180E290E00E948E0500
:100A5000B394F7CFB21418F42B1802C0982C212CA1
:100A6000A4FE10C0B60180E390E00E948E05A2FEB5
:100A700017C0A1FC03C088E790E002C088E590E0C1
:100A8000B6010CC08A2D867859F0A1FE02C08BE217
:100A900001C080E2A7FC8DE2B60190E00E948E05C5
:100AA000891438F4B60180E390E00E948E059A9490
:100AB000F7CF8A94F301E80DF11D8081B60190E033
:100AC0000E948E058110F5CF222009F442CEB60196
:100AD00080E290E00E948E052A94F6CFF60186818E
:100AE000978102C08FEF9FEF2B96E2E10C944406B2
:100AF000FC010590615070400110D8F780959095E9
:100B00008E0F9F1F0895FC016150704001900110ED
:100B1000D8F7809590958E0F9F1F08950F931F9380
:100B2000CF93DF93FB01238121FD03C08FEF9FEF64
:100B30002CC022FF16C0468157812481358142177F
:100B4000530744F4A081B1819D012F5F3F4F318352
:100B500020838C93268137812F5F3F4F37832683F5
:100B600014C08B01EC01FB010084F185E02D099597
:100B7000892BE1F6D80116968D919C9117970196D5
:100B800017969C938E931697CE01DF91CF911F916C
:100B90000F910895FA01AA27283051F1203181F1EF
:100BA000E8946F936E7F6E5F7F4F8F4F9F4FAF4F75
:100BB000B1E03ED0B4E03CD0670F781F891F9A1F88
:100BC000A11D680F791F8A1F911DA11D6A0F711D3C
:100BD000811D911DA11D20D009F468943F912AE048
:100BE000269F11243019305D3193DEF6CF01089530
:100BF000462F4770405D4193B3E00FD0C9F7F6CF61
:100C0000462F4F70405D4A3318F0495D31FD405228
:100C1000419302D0A9F7EACFB4E0A69597958795BE
:100C200077956795BA95C9F700976105710508959D
:100C30009B01AC010A2E0694579547953795279549
:100C4000BA95C9F7620F731F841F951FA01D0895E1
:100C50002F923F924F925F926F927F928F929F92CC
:100C6000AF92BF92CF92DF92EF92FF920F931F93BA
:100C7000CF93DF93CDB7DEB7CA1BDB0B0FB6F8946B
:100C8000DEBF0FBECDBF09942A88398848885F84AB
:100C90006E847D848C849B84AA84B984C884DF801C
:100CA000EE80FD800C811B81AA81B981CE0FD11D00
:100CB0000FB6F894DEBF0FBECDBFED010895F894D6
:020CC000FFCF64
:100CC2000000000200000000530000000000010AC2
:100CD2000D63757272656E742054656D703A2020D2
:100CE200257520312F313020477261642043656CB5
:100CF2007369757300206C65747A74653A202025D7
:100D0200752C2025752C2025752000206D697474A2
:100D12006C6572652054656D706572617475723AA6
:100D220020257520696E20312F3130204772616491
:100D32002043656C73697573000A0D637572726581
:100D42006E742046616E20526576733A20202575B6
:100D52002052504D0A00496E697469616C69736969
:100D620065726520696D20546573746D6F64757367
:100D72002C206D6974203220506F74656E74696F17
:100D82006E6D657465726E20616E7374656C6C65F0
:100D920020766F6E204B54592D4D657373756E67B7
:100DA20020756E642046616E2D546163686F7369AD
:100DB200676E616C0050574D2044757479437963B6
:100DC2006C652076616C7565203D202575200A00D2
:100DD20063616C6C696E67207063696E7430007356
:100DE2007461727477657274206D697420465F4312
:100DF20050553A202575202D206675657220554183
:0A0E02005254203D202575200A00FF
:00000001FF
