:100000000C9434000C9451000C9451000C94300367
:100010000C9451000C9451000C9451000C9451001C
:100020000C9451000C9451000C9451000C9451000C
:100030000C9451000C9451000C9451000C945100FC
:100040000C9451000C9451000C9451000C945100EC
:100050000C9451000C94C3020C9451000C94510068
:100060000C9451000C94510011241FBECFEFD8E026
:10007000DEBFCDBF14E0A0E0B1E0E6E9F1E102C0EF
:1000800005900D92A834B107D9F724E0A8E4B4E0B4
:1000900001C01D92A436B207E1F70E9468030C94D8
:1000A000C9080C940000CF93C82F8A3019F48DE052
:1000B0000E9453008091C00085FFFCCFC093C60012
:1000C00080E090E0CF910895CF93C82F80915104A4
:1000D000882361F01F92CF9380E191E09F938F93EB
:1000E0000E94EB050F900F900F900F90C7BDCF911E
:1000F000089580910E01882329F0809158049091F1
:10010000590408958EE591E0089580910F018130A2
:1001100031F180910F01833029F160915A0470917F
:100120005B046C527140072E000C880B990B0E94E7
:10013000CA0420E030E048E453E40E94200420E0B8
:1001400030E84DE655E40E94560520E030E04AE7ED
:1001500054E40E94B4030E949204CB01089580E00D
:1001600090E0089580EC92E1089580910E0188233B
:10017000C1F060915C0470915D0480E090E00E94A9
:10018000C80420E030EC4FE754E40E94200420E053
:1001900030E046E955E40E9456050E949204CB01E6
:1001A000089580E797E108958091C0008823E4F7DF
:1001B0008091C6000895CF938091C0008823A4F455
:1001C0000E94D400C82F80915104882371F01F929F
:1001D000CF9382E391E09F938F930E94EB050F9062
:1001E0000F900F900F9001C0C0E08C2FCF91089519
:1001F000CF93DF930E947900EC0180915104882312
:1002000061F0DF93CF938EE491E09F938F930E94F0
:10021000EB050F900F900F900F90E8E4F4E08281CF
:100220009381958384838081918193838283D18319
:10023000C083809151048823D1F04481558122816B
:100240003381808191815F934F933F932F939F934D
:100250008F938BE791E09F938F930E94EB058DB76F
:100260009EB708960FB6F8949EBF0FBE8DBF109232
:100270005B0410925A0480E012C0E82FEE0FFF0BCF
:10028000E85BFB4F4081518120915A0430915B041F
:10029000240F351F30935B0420935A048F5F833003
:1002A00064F380915A0490915B0463E070E00E94D3
:1002B000C30570935B0460935A04809151048823B2
:1002C00081F080915A0490915B049F938F9381E910
:1002D00091E09F938F930E94EB050F900F900F90EA
:1002E0000F9080915A0490915B048C32914024F4D9
:1002F00081E080930F0115C080915A0490915B04B6
:10030000843F914024F482E080930F010AC08091E1
:100310005A0490915B04843F91401CF083E08093E9
:100320000F0180915104882391F080910F01282FB3
:10033000082E000C330B3F938F938FEB91E09F932C
:100340008F930E94EB050F900F900F900F90DF910D
:10035000CF9108950E94B50090935704809356045E
:100360000E94850090935504809354048091510419
:100370008823C1F020915404309155048091560493
:10038000909157043F932F939F938F938DEC91E01F
:100390009F938F930E94EB050F900F900F900F90FB
:1003A0000F900F908091540490915504892B29F45B
:1003B00010924F0410924E0436C020915604309192
:1003C00057048091540490915504281739078CF4F0
:1003D00080914E0490914F048436910524F58091CC
:1003E0004E0490914F04019690934F0480934E04D5
:1003F0001AC0209156043091570480915404909172
:100400005504821793077CF480914E0490914F0419
:1004100089974CF080914E0490914F0401979093EE
:100420004F0480934E0460914E0470914F04072E48
:10043000000C880B990B0E94CA0423E333E343E2C8
:1004400050E40E9456050E949904862F0E94640081
:10045000089580910F018330D1F58FE092E09F9352
:100460008F930E94EB05E8E4F4E06481758142819A
:1004700053812081318180915A0490915B047F9354
:100480006F935F934F933F932F939F938F938AE440
:1004900092E09F938F930E94EB052091540430913A
:1004A000550480915604909157043F932F939F9346
:1004B0008F938DE992E09F938F930E94EB058DB708
:1004C0009EB742960FB6F8949EBF0FBE8DBF08959B
:1004D0000E94DB00893621F481E0809350040CC037
:1004E000813751F485EE92E09F938F930E94EB0544
:1004F000109250040F900F908091500480935104FB
:1005000008951092C50087E48093C400E2ECF0E007
:10051000808186608083E1ECF0E080818861808367
:1005200008958AE293E09F938F930E94EB05ECE796
:10053000F0E080818064808380E680838BE8809314
:100540007A0010927B00809151040F900F908130BF
:1005500049F489E893E09F938F930E94EB050F90F5
:100560000F9008C089EA93E09F938F930E94EB0558
:100570000F900F908BEC93E09F938F930E94EB056D
:100580000F900F9008951F920F920FB60F921124A3
:100590008F939F93EF93FF9380917C008136A9F412
:1005A00080917800909179000024880F991F001C99
:1005B000880F991F001C892F902D90935D048093C4
:1005C0005C0480E680937C0018C080917C008036BB
:1005D000A1F480917800909179000024880F991FF0
:1005E000001C880F991F001C892F902D909359048F
:1005F0008093580481E680937C00EAE7F0E08081F4
:1006000080648083FF91EF919F918F910F900FBE37
:100610000F901F9018958AB180648AB983E884BDD1
:1006200081E085BD0895E0E8F0E080818364808307
:10063000E1E8F0E080818F61808384E690E0909330
:1006400089008093880084B18D7F84B985B18260F0
:1006500085B981E08093680082E080936B00089503
:100660001F920F920FB60F9211242F933F934F9327
:100670005F936F937F938F939F93AF93BF93EF930A
:10068000FF9389E094E09F938F930E94EB050F9076
:100690000F904C990CC088B1806188B98091520448
:1006A0009091530401969093530480935204FF91C8
:1006B000EF91BF91AF919F918F917F916F915F91DA
:1006C0004F913F912F910F900FBE0F901F90189553
:1006D0000E94810280E091E0909361048093600425
:1006E0001F9287E48F9380EC8F931F9288E194E0B0
:1006F0009F938F930E94EB0580910E010F900F90B6
:100700000F900F900F900F90882319F00E94910284
:1007100002C00E9413030E940B037894EAE7F0E002
:100720008081806480830E94F8000E94AA010E9458
:1007300029020E94680280910E01882351F02FEF58
:100740008FE593E0215080409040E1F700C0000029
:10075000EACF2FEF8FEB91E2215080409040E1F7FC
:1007600000C00000E0CF5058BB27AA270E94CB034F
:100770000C941C050E940E0538F00E94150520F00F
:1007800039F49F3F19F426F40C940B050EF4E09510
:10079000E7FB0C940505E92F0E942D0558F3BA17C5
:1007A000620773078407950720F079F4A6F50C9487
:1007B0004F050EF4E0950B2EBA2FA02D0B01B901B9
:1007C00090010C01CA01A0011124FF27591B99F0C7
:1007D000593F50F4503E68F11A16F040A22F232FD3
:1007E000342F4427585FF3CF469537952795A79523
:1007F000F0405395C9F77EF41F16BA0B620B730BCA
:10080000840BBAF09150A1F0FF0FBB1F661F771F3A
:10081000881FC2F70EC0BA0F621F731F841F48F4EF
:10082000879577956795B795F7959E3F08F0B0CF78
:100830009395880F08F09927EE0F9795879508955F
:100840000E9434040C941C050E94150558F00E9467
:100850000E0540F029F45F3F29F00C940505511175
:100860000C9450050C940B050E942D0568F39923F8
:10087000B1F3552391F3951B550BBB27AA2762179C
:100880007307840738F09F5F5F4F220F331F441FA9
:10089000AA1FA9F335D00E2E3AF0E0E832D09150DD
:1008A0005040E695001CCAF72BD0FE2F29D0660FCA
:1008B000771F881FBB1F261737074807AB07B0E80D
:1008C00009F0BB0B802DBF01FF2793585F4F3AF013
:1008D0009E3F510578F00C9405050C9450055F3F40
:1008E000E4F3983ED4F3869577956795B795F79599
:1008F0009F5FC9F7880F911D9695879597F9089581
:10090000E1E0660F771F881FBB1F6217730784071C
:10091000BA0720F0621B730B840BBA0BEE1F88F72B
:10092000E09508950E9499046894B1110C945005C3
:1009300008950E94350588F09F5798F0B92F9927A0
:10094000B751B0F0E1F0660F771F881F991F1AF0BA
:10095000BA95C9F714C0B13091F00E944F05B1E0CB
:1009600008950C944F05672F782F8827B85F39F0CA
:10097000B93FCCF3869577956795B395D9F73EF453
:1009800090958095709561957F4F8F4F9F4F0895FB
:10099000E89409C097FB3EF4909580957095619519
:1009A0007F4F8F4F9F4F9923A9F0F92F96E9BB27CF
:1009B0009395F695879577956795B795F111F8CF4B
:1009C000FAF4BB0F11F460FF1BC06F5F7F4F8F4FB6
:1009D0009F4F16C0882311F096E911C0772321F0AC
:1009E0009EE8872F762F05C0662371F096E8862F44
:1009F00070E060E02AF09A95660F771F881FDAF79B
:100A0000880F9695879597F9089597F99F6780E8DD
:100A100070E060E008959FEF80EC089500240A9450
:100A20001616170618060906089500240A941216C9
:100A30001306140605060895092E0394000C11F4FC
:100A4000882352F0BB0F40F4BF2B11F460FF04C0A9
:100A50006F5F7F4F8F4F9F4F089557FD9058440F02
:100A6000551F59F05F3F71F04795880F97FB991F0D
:100A700061F09F3F79F087950895121613061406CA
:100A8000551FF2CF4695F1DF08C016161706180657
:100A9000991FF1CF86957105610508940895E89432
:100AA000BB2766277727CB0197F908950E94690530
:100AB0000C941C050E940E0538F00E94150520F0CC
:100AC000952311F00C9405050C940B0511240C943E
:100AD00050050E942D0570F3959FC1F3950F50E0CE
:100AE000551F629FF001729FBB27F00DB11D639FE0
:100AF000AA27F00DB11DAA1F649F6627B00DA11D86
:100B0000661F829F2227B00DA11D621F739FB00D2B
:100B1000A11D621F839FA00D611D221F749F33279B
:100B2000A00D611D231F849F600D211D822F762F34
:100B30006A2F11249F5750409AF0F1F088234AF011
:100B4000EE0FFF1FBB1F661F771F881F915050407D
:100B5000A9F79E3F510580F00C9405050C945005B3
:100B60005F3FE4F3983ED4F3869577956795B79504
:100B7000F795E7959F5FC1F7FE2B880F911D96951E
:100B8000879597F9089597FB072E16F4009407D0E0
:100B900077FD09D00E94D70507FC05D03EF490955B
:100BA00081959F4F0895709561957F4F0895AA1B79
:100BB000BB1B51E107C0AA1FBB1FA617B70710F048
:100BC000A61BB70B881F991F5A95A9F7809590957A
:100BD000BC01CD010895A0E0B0E0E1EFF5E00C9498
:100BE000A208AE014B5F5F4FFA0161917191AF01B5
:100BF00080916004909161040E940106E2E00C94EF
:100C0000BE08ABE0B0E0E7E0F6E00C9492086C01BF
:100C10007B018A01FC0117821682838181FFCCC18E
:100C2000CE0101963C01F6019381F70193FD859178
:100C300093FF81917F01882309F4BAC1853239F489
:100C400093FD859193FF81917F01853229F4B6014F
:100C500090E00E94F807E7CF912C212C312CFFE186
:100C6000F315D8F08B3279F038F4803279F0833292
:100C7000A1F4232D20611DC08D3261F0803369F411
:100C8000232D216016C0832D8260382EE32DE46071
:100C90003E2E2AC0F32DF8601DC037FC2DC020ED7C
:100CA000280F2A3040F08E32B9F436FC81C1232D52
:100CB0002064322E19C036FE06C08AE0989E200DB0
:100CC0001124922E11C0EAE02E9E200D1124222E16
:100CD000F32DF0623F2E08C08C3621F4832D8068FE
:100CE000382E02C0883641F4F70193FD859193FFB9
:100CF00081917F018111B3CF982F9F7D95549330BF
:100D000028F40C5F1F4F9FE399830DC0833631F0A9
:100D1000833771F0833509F059C021C0F801808113
:100D200089830E5F1F4F88248394912C530113C035
:100D30002801F2E04F0E511CF801A080B18036FE70
:100D400003C0692D70E002C06FEF7FEFC5010E9404
:100D5000ED074C018201F32DFF773F2E16C02801CD
:100D600022E0420E511CF801A080B18036FE03C083
:100D7000692D70E002C06FEF7FEFC5010E94E207AE
:100D80004C01F32DF0683F2E820133FC1BC0822DF5
:100D900090E088169906B0F4B60180E290E00E94D7
:100DA000F8072A94F4CFF50137FC859137FE81913D
:100DB0005F01B60190E00E94F80721102A9421E01B
:100DC000821A91088114910471F7E8C0843611F0F9
:100DD000893641F5F80137FE07C060817181828153
:100DE00093810C5F1F4F08C060817181072E000C3A
:100DF000880B990B0E5F1F4FF32DFF763F2E97FF49
:100E000009C090958095709561957F4F8F4F9F4F4A
:100E1000F0683F2E2AE030E0A3010E943408882EBB
:100E2000861845C0853731F4232D2F7EB22E2AE057
:100E300030E025C0932D997FB92E8F36C1F018F47C
:100E4000883579F0B5C0803719F0883721F0B0C007
:100E5000E92FE061BE2EB4FE0DC0FB2DF460BF2E65
:100E600009C034FE0AC0292F2660B22E06C028E031
:100E700030E005C020E130E002C020E132E0F801BE
:100E8000B7FE07C060817181828193810C5F1F4F23
:100E900006C06081718180E090E00E5F1F4FA3016A
:100EA0000E943408882E8618FB2DFF773F2E36FED1
:100EB0000DC0232D2E7FA22E891458F434FE0BC0B2
:100EC00032FC09C0832D8E7EA82E05C0B82CA32C21
:100ED00003C0B82C01C0B92CA4FE0FC0FE01E80D60
:100EE000F11D8081803321F49A2D997EA92E09C0AD
:100EF000A2FE06C0B394B39404C08A2D867809F08C
:100F0000B394A3FC11C0A0FE06C0B21488F4280C50
:100F1000922C9B180EC0B21460F4B60180E290E0EF
:100F20000E94F807B394F7CFB21418F42B1802C03C
:100F3000982C212CA4FE10C0B60180E390E00E9402
:100F4000F807A2FE17C0A1FC03C088E790E002C02A
:100F500088E590E0B6010CC08A2D867859F0A1FE94
:100F600002C08BE201C080E2A7FC8DE2B60190E0F6
:100F70000E94F807891438F4B60180E390E00E94DB
:100F8000F8079A94F7CF8A94F301E80DF11D808158
:100F9000B60190E00E94F8078110F5CF222009F4F5
:100FA00042CEB60180E290E00E94F8072A94F6CF84
:100FB000F6018681978102C08FEF9FEF2B96E2E1C9
:100FC0000C94AE08FC010590615070400110D8F7F8
:100FD000809590958E0F9F1F0895FC016150704081
:100FE00001900110D8F7809590958E0F9F1F08955E
:100FF0000F931F93CF93DF93FB01238121FD03C048
:101000008FEF9FEF2CC022FF16C0468157812481AD
:1010100035814217530744F4A081B1819D012F5FB0
:101020003F4F318320838C93268137812F5F3F4F41
:101030003783268314C08B01EC01FB010084F1850A
:10104000E02D0995892BE1F6D80116968D919C919A
:101050001797019617969C938E931697CE01DF9162
:10106000CF911F910F910895FA01AA27283051F1CD
:10107000203181F1E8946F936E7F6E5F7F4F8F4FC9
:101080009F4FAF4FB1E03ED0B4E03CD0670F781F28
:10109000891F9A1FA11D680F791F8A1F911DA11D0D
:1010A0006A0F711D811D911DA11D20D009F4689446
:1010B0003F912AE0269F11243019305D3193DEF6EE
:1010C000CF010895462F4770405D4193B3E00FD0A4
:1010D000C9F7F6CF462F4F70405D4A3318F0495D8F
:1010E00031FD4052419302D0A9F7EACFB4E0A69572
:1010F0009795879577956795BA95C9F70097610594
:10110000710508959B01AC010A2E069457954795E9
:1011100037952795BA95C9F7620F731F841F951FDE
:10112000A01D08952F923F924F925F926F927F92EF
:101130008F929F92AF92BF92CF92DF92EF92FF92E7
:101140000F931F93CF93DF93CDB7DEB7CA1BDB0B93
:101150000FB6F894DEBF0FBECDBF09942A88398838
:1011600048885F846E847D848C849B84AA84B9843F
:10117000C884DF80EE80FD800C811B81AA81B9814B
:10118000CE0FD11D0FB6F894DEBF0FBECDBFED015F
:061190000895F894FFCF62
:1011960000000002000000005300000000000101F2
:1011A60050574D20447574794379636C65205765B3
:1011B60072742028302D32353529203D20257520A2
:1011C6000A000A0D48616265205A65696368656EA2
:1011D60020257520656D7066616E67656E000A0D67
:1011E600416B7475656C6C652054656D70657261D4
:1011F6007475723A2020257520312F3130204772C0
:1012060061642043656C7369757300206C65747A3C
:1012160074653A202025752C2025752C20257520EF
:1012260000206D6974746C6572652054656D706517
:1012360072617475723A20257520696E20312F31DE
:101246003020477261642043656C73697573000AC8
:101256000D5A757374616E643A202575000A0D4146
:101266006B7475656C6C6520416E7A61686C204C98
:10127600756566746572756D64726568756E6765A9
:101286006E3A202025752052504D202F205A696530
:101296006C776572743A2025752052504D0A000A03
:1012A6000A0D414C41524D2121212054454D5045B6
:1012B6005241545552204841542044454E204D41F8
:1012C60058494D414C574552542055454245525375
:1012D600434852495454454E21000A0D4D697474D1
:1012E6006C6572652054656D706572617475723ACD
:1012F60020257520696E20312F31302047726164B8
:101306002043656C736975732C206C65747A7465FB
:101316002064726569204D657373756E67656E3AF4
:10132600202025752C2025752C202575000A0D41B9
:101336006B7475656C6C65204C7565667465726456
:101346007265687A61686C3A2025752052504D2086
:101356002D205265676C65722D5A69656C2D4C752A
:101366006566746572647265687A61686C20257555
:101376002052504D000A0A0D554152542D417573A5
:10138600676162656E206465616B74697669657212
:1013960074202D207769656465722065696E7374A3
:1013A600656C6C656E206D69742054617374656E2E
:1013B600647275636B2027692700496E69746961D9
:1013C6006C69736965726520696D20546573746D07
:1013D6006F6475732C206D6974203220506F7465AC
:1013E6006E74696F6E6D657465726E20616E73746E
:1013F600656C6C6520766F6E204B54592D4D657368
:1014060073756E6720756E642046616E2D54616338
:10141600686F7369676E616C000A0D446562756773
:101426002D554152542D417573676162656E206179
:101436006B74697669657274000A0D446562756736
:101446002D554152542D417573676162656E206456
:1014560065616B74697669657274000A0A0D4D6977
:10146600742054617374656E647275636B202769AA
:101476002720446562756720616B746976696572B9
:10148600656E2C206D697420277127206465616B59
:10149600746976696572656E0063616C6C696E6706
:1014A600207063696E7430000A0A0A0D5374617203
:1014B6007477657274206D697420465F4350553A9F
:1014C600202575202D2066756572205541525420C1
:0814D6003D202575200A0000ED
:00000001FF
