:100000000C9434000C9451000C9451000C9489020F
:100010000C9451000C9451000C9451000C9451001C
:100020000C9451000C9451000C9451000C9451000C
:100030000C9451000C9451000C9451000C945100FC
:100040000C9451000C9451000C9451000C945100EC
:100050000C9451000C94A9010C9451000C94510083
:100060000C9451000C94510011241FBECFEFD8E026
:10007000DEBFCDBF12E0A0E0B1E0E0E4F0E102C0FD
:1000800005900D92A43CB107D9F722E0A4ECB2E0B0
:1000900001C01D92AA3DB207E1F70E94C1020C9473
:1000A0001E080C940000CF93C82F8A3019F48DE0FD
:1000B0000E9453008091C00085FFFCCFC093C60012
:1000C00080E090E0CF910895CF93DF9380910E016F
:1000D000882339F08091CE029091CF02D82FC92F7A
:1000E00002C0DEE5C1E0CF93DF9380E191E09F9312
:1000F0008F930E9440050F900F900F900F908D2FBF
:100100009C2FDF91CF9108950E946400E4ECF2E00F
:10011000228133813583248320813181338322837B
:1001200091838083448155812281338180819181B3
:100130005F934F933F932F939F938F938DE391E022
:100140009F938F930E9440051092D1021092D0028B
:100150008DB79EB708960FB6F8949EBF0FBE8DBFA1
:1001600080E012C0E82FEE0FFF0BEC53FD4F4081F3
:1001700051812091D0023091D102240F351F30934C
:10018000D1022093D0028F5F833064F38091D0023C
:100190009091D10263E070E00E9418057093D10243
:1001A0006093D0028091D0029091D1029F938F935F
:1001B00083E591E09F938F930E9440058091D00248
:1001C0009091D1020F900F900F900F908C32914030
:1001D00024F481E080930F0115C08091D0029091AA
:1001E000D102843F914024F482E080930F010AC041
:1001F0008091D0029091D102843F91401CF083E025
:1002000080930F0180910F01282F082E000C330BD3
:100210003F938F9381E891E09F938F930E944005D5
:100220000F900F900F900F900895CF92DF92EF9262
:10023000FF9280910F018130F1F180910F018330A5
:10024000E9F16091D0027091D1026C527140072E99
:10025000000C880B990B0E941F0420E030E048E45A
:1002600053E40E9475036B017C0120E030E048EC10
:1002700052E40E94AB040E94E7037F936F938FE8E0
:1002800091E09F938F930E94400520E030E84DE677
:1002900055E4C701B6010E94AB0420E030E04AE714
:1002A00054E40E9409030E94E703CB010F900F90D2
:1002B0000F900F9005C080E090E002C080EC92E1CA
:1002C000FF90EF90DF90CF90089580910E018823EA
:1002D000C1F06091D2027091D30280E090E00E9460
:1002E0001D0420E030EC4FE754E40E94750320E049
:1002F00030E046E955E40E94AB040E94E703CB01DD
:10030000089580E797E108951092C50087E48093EF
:10031000C400E2ECF0E0808186608083E1ECF0E0F4
:1003200080818861808308958AEC91E09F938F9308
:100330000E944005ECE7F0E080818064808380E6E5
:1003400080838BE880937A0010927B000F900F904F
:1003500008951F920F920FB60F9211248F939F93BF
:10036000EF93FF9380917C008136A9F4809178000F
:10037000909179000024880F991F001C880F991F05
:10038000001C892F902D9093D3028093D20280E697
:1003900080937C0018C080917C008036A1F480910D
:1003A0007800909179000024880F991F001C880F15
:1003B000991F001C892F902D9093CF028093CE021D
:1003C00081E680937C00EAE7F0E0808180648083AE
:1003D000FF91EF919F918F910F900FBE0F901F9003
:1003E00018958AB180648AB983E884BD81E085BDAF
:1003F0000895CF93C82F1F928F9389E292E09F9325
:100400008F930E944005C7BD0F900F900F900F90E3
:10041000CF9108950F931F93CF93DF930E946501AF
:100420008C010E941501EC01DF93CF931F930F9372
:1004300084E492E09F938F930E9440050F900F9069
:100440000F900F900F900F90209729F41092CB02ED
:100450001092CA0226C00C171D078CF48091CA02A4
:100460009091CB0284369105E4F48091CA02909178
:10047000CB0201969093CB028093CA0212C0C017A0
:10048000D1077CF48091CA029091CB0289974CF0FD
:100490008091CA029091CB0201979093CB028093F6
:1004A000CA026091CA027091CB02072E000C880B21
:1004B000990B0E941F0423E333E343E250E40E94BC
:1004C000AB040E94EE03862F90E00E94F901DF91B9
:1004D000CF911F910F910895E0E8F0E0808183644F
:1004E0008083E1E8F0E080818F61808384E690E0A2
:1004F000909389008093880084B18D7F84B985B101
:10050000826085B981E08093680082E080936B000F
:1005100008951F920F920FB60F9211242F933F93BD
:100520004F935F936F937F938F939F93AF93BF93FB
:10053000EF93FF9386E892E09F938F930E9440058C
:100540000F900F904C990CC088B1806188B9809150
:10055000CC029091CD0201969093CD028093CC0273
:10056000FF91EF91BF91AF919F918F917F916F918B
:100570005F914F913F912F910F900FBE0F901F9061
:1005800018950E94840180E091E09093D7028093B7
:10059000D6021F9287E48F9380EC8F931F9285E998
:1005A00092E09F938F930E94400580910E010F90DF
:1005B0000F900F900F900F900F90882319F00E94CA
:1005C000940102C00E946C020E94F1017894EAE753
:1005D000F0E08081806480830E9484000E940A028F
:1005E00080910E01882351F02FEF8FE593E0215089
:1005F00080409040E1F700C00000EECF2FEF8FEB7E
:1006000091E2215080409040E1F700C00000E4CF2B
:100610005058BB27AA270E9420030C9471040E9403
:10062000630438F00E946A0420F039F49F3F19F403
:1006300026F40C9460040EF4E095E7FB0C945A0445
:10064000E92F0E94820458F3BA17620773078407E0
:10065000950720F079F4A6F50C94A4040EF4E09527
:100660000B2EBA2FA02D0B01B90190010C01CA016C
:10067000A0011124FF27591B99F0593F50F4503E17
:1006800068F11A16F040A22F232F342F4427585F09
:10069000F3CF469537952795A795F0405395C9F721
:1006A0007EF41F16BA0B620B730B840BBAF09150D9
:1006B000A1F0FF0FBB1F661F771F881FC2F70EC078
:1006C000BA0F621F731F841F48F48795779567954B
:1006D000B795F7959E3F08F0B0CF9395880F08F037
:1006E0009927EE0F9795879508950E9489030C949A
:1006F00071040E946A0458F00E94630440F029F4D7
:100700005F3F29F00C945A0451110C94A5040C94E9
:1007100060040E94820468F39923B1F3552391F396
:10072000951B550BBB27AA2762177307840738F060
:100730009F5F5F4F220F331F441FAA1FA9F335D0BD
:100740000E2E3AF0E0E832D091505040E695001C71
:10075000CAF72BD0FE2F29D0660F771F881FBB1F2B
:10076000261737074807AB07B0E809F0BB0B802D09
:10077000BF01FF2793585F4F3AF09E3F510578F035
:100780000C945A040C94A5045F3FE4F3983ED4F310
:10079000869577956795B795F7959F5FC9F7880F09
:1007A000911D9695879597F90895E1E0660F771F5B
:1007B000881FBB1F621773078407BA0720F0621BEC
:1007C000730B840BBA0BEE1F88F7E09508950E9417
:1007D000EE036894B1110C94A50408950E948A0454
:1007E00088F09F5798F0B92F9927B751B0F0E1F0F2
:1007F000660F771F881F991F1AF0BA95C9F714C0A2
:10080000B13091F00E94A404B1E008950C94A404C6
:10081000672F782F8827B85F39F0B93FCCF38695DA
:1008200077956795B395D9F73EF490958095709537
:1008300061957F4F8F4F9F4F0895E89409C097FBB4
:100840003EF490958095709561957F4F8F4F9F4FA7
:100850009923A9F0F92F96E9BB279395F6958795EB
:1008600077956795B795F111F8CFFAF4BB0F11F4AE
:1008700060FF1BC06F5F7F4F8F4F9F4F16C0882355
:1008800011F096E911C0772321F09EE8872F762F8B
:1008900005C0662371F096E8862F70E060E02AF0CC
:1008A0009A95660F771F881FDAF7880F96958795B8
:1008B00097F9089597F99F6780E870E060E00895E0
:1008C0009FEF80EC089500240A9416161706180668
:1008D0000906089500240A94121613061406050644
:1008E0000895092E0394000C11F4882352F0BB0FD5
:1008F00040F4BF2B11F460FF04C06F5F7F4F8F4F38
:100900009F4F089557FD9058440F551F59F05F3F72
:1009100071F04795880F97FB991F61F09F3F79F021
:1009200087950895121613061406551FF2CF4695A3
:10093000F1DF08C0161617061806991FF1CF869525
:100940007105610508940895E894BB276627772709
:10095000CB0197F908950E94BE040C9471040E9483
:10096000630438F00E946A0420F0952311F00C947F
:100970005A040C94600411240C94A5040E9482046F
:1009800070F3959FC1F3950F50E0551F629FF001E2
:10099000729FBB27F00DB11D639FAA27F00DB11DFB
:1009A000AA1F649F6627B00DA11D661F829F222784
:1009B000B00DA11D621F739FB00DA11D621F839F0B
:1009C000A00D611D221F749F3327A00D611D231FE1
:1009D000849F600D211D822F762F6A2F11249F572F
:1009E00050409AF0F1F088234AF0EE0FFF1FBB1F32
:1009F000661F771F881F91505040A9F79E3F5105F1
:100A000080F00C945A040C94A5045F3FE4F3983EE4
:100A1000D4F3869577956795B795F795E7959F5F9A
:100A2000C1F7FE2B880F911D9695879597F908952C
:100A300097FB072E16F4009407D077FD09D00E948B
:100A40002C0507FC05D03EF4909581959F4F0895A5
:100A5000709561957F4F0895AA1BBB1B51E107C09C
:100A6000AA1FBB1FA617B70710F0A61BB70B881F3E
:100A7000991F5A95A9F780959095BC01CD010895CD
:100A8000A0E0B0E0E6E4F5E00C94F707AE014B5FC0
:100A90005F4FFA0161917191AF018091D6029091FF
:100AA000D7020E945605E2E00C941308ABE0B0E0D8
:100AB000ECE5F5E00C94E7076C017B018A01FC0191
:100AC00017821682838181FFCCC1CE0101963C0141
:100AD000F6019381F70193FD859193FF81917F0149
:100AE000882309F4BAC1853239F493FD859193FFC7
:100AF00081917F01853229F4B60190E00E944D0773
:100B0000E7CF912C212C312CFFE1F315D8F08B325B
:100B100079F038F4803279F08332A1F4232D20610A
:100B20001DC08D3261F0803369F4232D216016C021
:100B3000832D8260382EE32DE4603E2E2AC0F32DF3
:100B4000F8601DC037FC2DC020ED280F2A3040F082
:100B50008E32B9F436FC81C1232D2064322E19C0A7
:100B600036FE06C08AE0989E200D1124922E11C0F8
:100B7000EAE02E9E200D1124222EF32DF0623F2E4E
:100B800008C08C3621F4832D8068382E02C0883648
:100B900041F4F70193FD859193FF81917F018111CC
:100BA000B3CF982F9F7D9554933028F40C5F1F4F3F
:100BB0009FE399830DC0833631F0833771F083351D
:100BC00009F059C021C0F801808189830E5F1F4F51
:100BD00088248394912C530113C02801F2E04F0E16
:100BE000511CF801A080B18036FE03C0692D70E071
:100BF00002C06FEF7FEFC5010E9442074C018201E6
:100C0000F32DFF773F2E16C0280122E0420E511C23
:100C1000F801A080B18036FE03C0692D70E002C0EB
:100C20006FEF7FEFC5010E9437074C01F32DF0688D
:100C30003F2E820133FC1BC0822D90E0881699065E
:100C4000B0F4B60180E290E00E944D072A94F4CF00
:100C5000F50137FC859137FE81915F01B60190E087
:100C60000E944D0721102A9421E0821A91088114D4
:100C7000910471F7E8C0843611F0893641F5F80126
:100C800037FE07C060817181828193810C5F1F4FA5
:100C900008C060817181072E000C880B990B0E5FD4
:100CA0001F4FF32DFF763F2E97FF09C0909580953B
:100CB000709561957F4F8F4F9F4FF0683F2E2AE0D0
:100CC00030E0A3010E948907882E861845C0853729
:100CD00031F4232D2F7EB22E2AE030E025C0932D53
:100CE000997FB92E8F36C1F018F4883579F0B5C0E8
:100CF000803719F0883721F0B0C0E92FE061BE2EAF
:100D0000B4FE0DC0FB2DF460BF2E09C034FE0AC036
:100D1000292F2660B22E06C028E030E005C020E171
:100D200030E002C020E132E0F801B7FE07C0608188
:100D30007181828193810C5F1F4F06C06081718138
:100D400080E090E00E5F1F4FA3010E948907882E6C
:100D50008618FB2DFF773F2E36FE0DC0232D2E7FEC
:100D6000A22E891458F434FE0BC032FC09C0832D26
:100D70008E7EA82E05C0B82CA32C03C0B82C01C0B1
:100D8000B92CA4FE0FC0FE01E80DF11D8081803357
:100D900021F49A2D997EA92E09C0A2FE06C0B39413
:100DA000B39404C08A2D867809F0B394A3FC11C0D3
:100DB000A0FE06C0B21488F4280C922C9B180EC01A
:100DC000B21460F4B60180E290E00E944D07B39443
:100DD000F7CFB21418F42B1802C0982C212CA4FEC3
:100DE00010C0B60180E390E00E944D07A2FE17C03C
:100DF000A1FC03C088E790E002C088E590E0B6015E
:100E00000CC08A2D867859F0A1FE02C08BE201C089
:100E100080E2A7FC8DE2B60190E00E944D078914A4
:100E200038F4B60180E390E00E944D079A94F7CF22
:100E30008A94F301E80DF11D8081B60190E00E94D3
:100E40004D078110F5CF222009F442CEB60180E291
:100E500090E00E944D072A94F6CFF6018681978193
:100E600002C08FEF9FEF2B96E2E10C940308FC0188
:100E70000590615070400110D8F7809590958E0FC5
:100E80009F1F0895FC016150704001900110D8F738
:100E9000809590958E0F9F1F08950F931F93CF936A
:100EA000DF93FB01238121FD03C08FEF9FEF2CC057
:100EB00022FF16C04681578124813581421753078E
:100EC00044F4A081B1819D012F5F3F4F3183208386
:100ED0008C93268137812F5F3F4F3783268314C041
:100EE0008B01EC01FB010084F185E02D0995892B34
:100EF000E1F6D80116968D919C9117970196179659
:100F00009C938E931697CE01DF91CF911F910F91F5
:100F10000895FA01AA27283051F1203181F1E8948F
:100F20006F936E7F6E5F7F4F8F4F9F4FAF4FB1E0DC
:100F30003ED0B4E03CD0670F781F891F9A1FA11DD7
:100F4000680F791F8A1F911DA11D6A0F711D811DD8
:100F5000911DA11D20D009F468943F912AE0269F9D
:100F600011243019305D3193DEF6CF010895462FFC
:100F70004770405D4193B3E00FD0C9F7F6CF462FDD
:100F80004F70405D4A3318F0495D31FD4052419346
:100F900002D0A9F7EACFB4E0A69597958795779503
:100FA0006795BA95C9F700976105710508959B018A
:100FB000AC010A2E06945795479537952795BA9513
:100FC000C9F7620F731F841F951FA01D08952F92EC
:100FD0003F924F925F926F927F928F929F92AF92C9
:100FE000BF92CF92DF92EF92FF920F931F93CF9316
:100FF000DF93CDB7DEB7CA1BDB0B0FB6F894DEBFAD
:101000000FBECDBF09942A88398848885F846E84D2
:101010007D848C849B84AA84B984C884DF80EE801C
:10102000FD800C811B81AA81B981CE0FD11D0FB625
:10103000F894DEBF0FBECDBFED010895F894FFCF49
:101040000000000200000000530000000000010149
:101050000A0D416B7475656C6C652054656D706527
:1010600072617475723A2020257520312F3130203D
:10107000477261642043656C7369757300206C6509
:10108000747A74653A202025752C2025752C20252E
:10109000752000206D6974746C6572652054656DEF
:1010A000706572617475723A20257520696E203101
:1010B0002F313020477261642043656C736975730A
:1010C000000A0D5A757374616E643A202575000A22
:1010D0000D2070726F7A656E7420646572204D61A8
:1010E00078696D616C74656D70657261747572207C
:1010F000696D20496E74657276616C6C3A20257555
:101100002050726F7A656E742000496E697469614F
:101110006C69736965726520696D20546573746DBF
:101120006F6475732C206D6974203220506F746564
:101130006E74696F6E6D657465726E20616E737426
:10114000656C6C6520766F6E204B54592D4D657320
:1011500073756E6720756E642046616E2D546163F1
:10116000686F7369676E616C0050574D20447574E9
:10117000794379636C652076616C7565203D202527
:1011800075200A000A0D416B7475656C6C65204111
:101190006E7A61686C204C756566746572756D64F5
:1011A000726568756E67656E3A202025752052500D
:1011B0004D202F205A69656C776572743A20257529
:1011C0002052504D0A0063616C6C696E6720706339
:1011D000696E7430000A0A0A0D537461727477657F
:1011E0007274206D697420465F4350553A2025750E
:1011F000202D20667565722055415254203D2025D2
:0412000075200A004B
:00000001FF
